{
  "_format": "hh-sol-artifact-1",
  "contractName": "VehicleLedger",
  "sourceName": "contracts/VehicleLedger.sol",
  "abi": [
    {
      "inputs": [],
      "stateMutability": "nonpayable",
      "type": "constructor"
    },
    {
      "inputs": [],
      "name": "AccessControlBadConfirmation",
      "type": "error"
    },
    {
      "inputs": [
        {
          "internalType": "address",
          "name": "account",
          "type": "address"
        },
        {
          "internalType": "bytes32",
          "name": "neededRole",
          "type": "bytes32"
        }
      ],
      "name": "AccessControlUnauthorizedAccount",
      "type": "error"
    },
    {
      "anonymous": false,
      "inputs": [
        {
          "indexed": true,
          "internalType": "string",
          "name": "vin",
          "type": "string"
        },
        {
          "indexed": false,
          "internalType": "uint256",
          "name": "accidentDate",
          "type": "uint256"
        },
        {
          "indexed": false,
          "internalType": "enum VehicleLedger.ImpactSeverity",
          "name": "severity",
          "type": "uint8"
        }
      ],
      "name": "AccidentRecordAdded",
      "type": "event"
    },
    {
      "anonymous": false,
      "inputs": [
        {
          "indexed": true,
          "internalType": "string",
          "name": "vin",
          "type": "string"
        },
        {
          "indexed": false,
          "internalType": "uint256",
          "name": "reportDate",
          "type": "uint256"
        },
        {
          "indexed": false,
          "internalType": "uint32",
          "name": "mileage",
          "type": "uint32"
        }
      ],
      "name": "MileageRecordAdded",
      "type": "event"
    },
    {
      "anonymous": false,
      "inputs": [
        {
          "indexed": true,
          "internalType": "string",
          "name": "vin",
          "type": "string"
        },
        {
          "indexed": false,
          "internalType": "uint256",
          "name": "startDate",
          "type": "uint256"
        },
        {
          "indexed": false,
          "internalType": "enum VehicleLedger.OwnerType",
          "name": "usageType",
          "type": "uint8"
        }
      ],
      "name": "OwnerRecordAdded",
      "type": "event"
    },
    {
      "anonymous": false,
      "inputs": [
        {
          "indexed": true,
          "internalType": "string",
          "name": "vin",
          "type": "string"
        },
        {
          "indexed": false,
          "internalType": "string",
          "name": "recallId",
          "type": "string"
        },
        {
          "indexed": false,
          "internalType": "bool",
          "name": "isResolved",
          "type": "bool"
        }
      ],
      "name": "RecallRecordAdded",
      "type": "event"
    },
    {
      "anonymous": false,
      "inputs": [
        {
          "indexed": true,
          "internalType": "bytes32",
          "name": "role",
          "type": "bytes32"
        },
        {
          "indexed": true,
          "internalType": "bytes32",
          "name": "previousAdminRole",
          "type": "bytes32"
        },
        {
          "indexed": true,
          "internalType": "bytes32",
          "name": "newAdminRole",
          "type": "bytes32"
        }
      ],
      "name": "RoleAdminChanged",
      "type": "event"
    },
    {
      "anonymous": false,
      "inputs": [
        {
          "indexed": true,
          "internalType": "bytes32",
          "name": "role",
          "type": "bytes32"
        },
        {
          "indexed": true,
          "internalType": "address",
          "name": "account",
          "type": "address"
        },
        {
          "indexed": true,
          "internalType": "address",
          "name": "sender",
          "type": "address"
        }
      ],
      "name": "RoleGranted",
      "type": "event"
    },
    {
      "anonymous": false,
      "inputs": [
        {
          "indexed": true,
          "internalType": "bytes32",
          "name": "role",
          "type": "bytes32"
        },
        {
          "indexed": true,
          "internalType": "address",
          "name": "account",
          "type": "address"
        },
        {
          "indexed": true,
          "internalType": "address",
          "name": "sender",
          "type": "address"
        }
      ],
      "name": "RoleRevoked",
      "type": "event"
    },
    {
      "anonymous": false,
      "inputs": [
        {
          "indexed": true,
          "internalType": "string",
          "name": "vin",
          "type": "string"
        },
        {
          "indexed": false,
          "internalType": "uint256",
          "name": "serviceDate",
          "type": "uint256"
        },
        {
          "indexed": false,
          "internalType": "string",
          "name": "serviceNotes",
          "type": "string"
        }
      ],
      "name": "ServiceRecordAdded",
      "type": "event"
    },
    {
      "anonymous": false,
      "inputs": [
        {
          "indexed": true,
          "internalType": "string",
          "name": "vin",
          "type": "string"
        },
        {
          "indexed": false,
          "internalType": "uint256",
          "name": "reportDate",
          "type": "uint256"
        },
        {
          "indexed": false,
          "internalType": "enum VehicleLedger.TitleType",
          "name": "titleType",
          "type": "uint8"
        }
      ],
      "name": "TitleRecordAdded",
      "type": "event"
    },
    {
      "anonymous": false,
      "inputs": [
        {
          "indexed": true,
          "internalType": "string",
          "name": "vin",
          "type": "string"
        },
        {
          "indexed": false,
          "internalType": "string",
          "name": "brand",
          "type": "string"
        },
        {
          "indexed": false,
          "internalType": "string",
          "name": "model",
          "type": "string"
        },
        {
          "indexed": false,
          "internalType": "uint16",
          "name": "year",
          "type": "uint16"
        }
      ],
      "name": "VehicleRegistered",
      "type": "event"
    },
    {
      "inputs": [],
      "name": "DEFAULT_ADMIN_ROLE",
      "outputs": [
        {
          "internalType": "bytes32",
          "name": "",
          "type": "bytes32"
        }
      ],
      "stateMutability": "view",
      "type": "function"
    },
    {
      "inputs": [],
      "name": "DMV_ROLE",
      "outputs": [
        {
          "internalType": "bytes32",
          "name": "",
          "type": "bytes32"
        }
      ],
      "stateMutability": "view",
      "type": "function"
    },
    {
      "inputs": [],
      "name": "INSURER_ROLE",
      "outputs": [
        {
          "internalType": "bytes32",
          "name": "",
          "type": "bytes32"
        }
      ],
      "stateMutability": "view",
      "type": "function"
    },
    {
      "inputs": [],
      "name": "MANUFACTURER_ROLE",
      "outputs": [
        {
          "internalType": "bytes32",
          "name": "",
          "type": "bytes32"
        }
      ],
      "stateMutability": "view",
      "type": "function"
    },
    {
      "inputs": [],
      "name": "MECHANIC_ROLE",
      "outputs": [
        {
          "internalType": "bytes32",
          "name": "",
          "type": "bytes32"
        }
      ],
      "stateMutability": "view",
      "type": "function"
    },
    {
      "inputs": [
        {
          "internalType": "string",
          "name": "",
          "type": "string"
        },
        {
          "internalType": "uint256",
          "name": "",
          "type": "uint256"
        }
      ],
      "name": "accidentHistory",
      "outputs": [
        {
          "internalType": "uint256",
          "name": "accidentDate",
          "type": "uint256"
        },
        {
          "internalType": "string",
          "name": "location",
          "type": "string"
        },
        {
          "internalType": "enum VehicleLedger.ImpactSeverity",
          "name": "severity",
          "type": "uint8"
        },
        {
          "internalType": "bool",
          "name": "airbagsDeployed",
          "type": "bool"
        },
        {
          "internalType": "bool",
          "name": "structuralDamage",
          "type": "bool"
        },
        {
          "internalType": "address",
          "name": "reporter",
          "type": "address"
        }
      ],
      "stateMutability": "view",
      "type": "function"
    },
    {
      "inputs": [
        {
          "internalType": "string",
          "name": "_vin",
          "type": "string"
        },
        {
          "internalType": "uint256",
          "name": "_accidentDate",
          "type": "uint256"
        },
        {
          "internalType": "string",
          "name": "_location",
          "type": "string"
        },
        {
          "internalType": "enum VehicleLedger.ImpactSeverity",
          "name": "_severity",
          "type": "uint8"
        },
        {
          "internalType": "bool",
          "name": "_airbagsDeployed",
          "type": "bool"
        },
        {
          "internalType": "bool",
          "name": "_structuralDamage",
          "type": "bool"
        }
      ],
      "name": "addAccidentRecord",
      "outputs": [],
      "stateMutability": "nonpayable",
      "type": "function"
    },
    {
      "inputs": [
        {
          "internalType": "string",
          "name": "_vin",
          "type": "string"
        },
        {
          "internalType": "uint256",
          "name": "_reportDate",
          "type": "uint256"
        },
        {
          "internalType": "uint32",
          "name": "_mileage",
          "type": "uint32"
        }
      ],
      "name": "addMileageRecord",
      "outputs": [],
      "stateMutability": "nonpayable",
      "type": "function"
    },
    {
      "inputs": [
        {
          "internalType": "string",
          "name": "_vin",
          "type": "string"
        },
        {
          "internalType": "uint256",
          "name": "_startDate",
          "type": "uint256"
        },
        {
          "internalType": "string",
          "name": "_stateRegistered",
          "type": "string"
        },
        {
          "internalType": "enum VehicleLedger.OwnerType",
          "name": "_usageType",
          "type": "uint8"
        }
      ],
      "name": "addOwnerRecord",
      "outputs": [],
      "stateMutability": "nonpayable",
      "type": "function"
    },
    {
      "inputs": [
        {
          "internalType": "string",
          "name": "_vin",
          "type": "string"
        },
        {
          "internalType": "uint256",
          "name": "_serviceDate",
          "type": "uint256"
        },
        {
          "internalType": "uint32",
          "name": "_mileage",
          "type": "uint32"
        },
        {
          "internalType": "string",
          "name": "_serviceNotes",
          "type": "string"
        }
      ],
      "name": "addServiceRecord",
      "outputs": [],
      "stateMutability": "nonpayable",
      "type": "function"
    },
    {
      "inputs": [
        {
          "internalType": "string",
          "name": "_vin",
          "type": "string"
        }
      ],
      "name": "getLatestMileage",
      "outputs": [
        {
          "components": [
            {
              "internalType": "uint256",
              "name": "reportDate",
              "type": "uint256"
            },
            {
              "internalType": "uint32",
              "name": "mileage",
              "type": "uint32"
            },
            {
              "internalType": "address",
              "name": "reporter",
              "type": "address"
            }
          ],
          "internalType": "struct VehicleLedger.MileageRecord",
          "name": "",
          "type": "tuple"
        }
      ],
      "stateMutability": "view",
      "type": "function"
    },
    {
      "inputs": [
        {
          "internalType": "string",
          "name": "_vin",
          "type": "string"
        }
      ],
      "name": "getLatestTitle",
      "outputs": [
        {
          "components": [
            {
              "internalType": "uint256",
              "name": "reportDate",
              "type": "uint256"
            },
            {
              "internalType": "enum VehicleLedger.TitleType",
              "name": "titleType",
              "type": "uint8"
            },
            {
              "internalType": "string",
              "name": "details",
              "type": "string"
            },
            {
              "internalType": "address",
              "name": "reporter",
              "type": "address"
            }
          ],
          "internalType": "struct VehicleLedger.TitleRecord",
          "name": "",
          "type": "tuple"
        }
      ],
      "stateMutability": "view",
      "type": "function"
    },
    {
      "inputs": [
        {
          "internalType": "string",
          "name": "_vin",
          "type": "string"
        }
      ],
      "name": "getOwnerCount",
      "outputs": [
        {
          "internalType": "uint256",
          "name": "",
          "type": "uint256"
        }
      ],
      "stateMutability": "view",
      "type": "function"
    },
    {
      "inputs": [
        {
          "internalType": "bytes32",
          "name": "role",
          "type": "bytes32"
        }
      ],
      "name": "getRoleAdmin",
      "outputs": [
        {
          "internalType": "bytes32",
          "name": "",
          "type": "bytes32"
        }
      ],
      "stateMutability": "view",
      "type": "function"
    },
    {
      "inputs": [
        {
          "internalType": "bytes32",
          "name": "role",
          "type": "bytes32"
        },
        {
          "internalType": "address",
          "name": "account",
          "type": "address"
        }
      ],
      "name": "grantRole",
      "outputs": [],
      "stateMutability": "nonpayable",
      "type": "function"
    },
    {
      "inputs": [
        {
          "internalType": "bytes32",
          "name": "role",
          "type": "bytes32"
        },
        {
          "internalType": "address",
          "name": "account",
          "type": "address"
        }
      ],
      "name": "hasRole",
      "outputs": [
        {
          "internalType": "bool",
          "name": "",
          "type": "bool"
        }
      ],
      "stateMutability": "view",
      "type": "function"
    },
    {
      "inputs": [
        {
          "internalType": "string",
          "name": "",
          "type": "string"
        },
        {
          "internalType": "uint256",
          "name": "",
          "type": "uint256"
        }
      ],
      "name": "mileageHistory",
      "outputs": [
        {
          "internalType": "uint256",
          "name": "reportDate",
          "type": "uint256"
        },
        {
          "internalType": "uint32",
          "name": "mileage",
          "type": "uint32"
        },
        {
          "internalType": "address",
          "name": "reporter",
          "type": "address"
        }
      ],
      "stateMutability": "view",
      "type": "function"
    },
    {
      "inputs": [
        {
          "internalType": "string",
          "name": "",
          "type": "string"
        },
        {
          "internalType": "uint256",
          "name": "",
          "type": "uint256"
        }
      ],
      "name": "ownerHistory",
      "outputs": [
        {
          "internalType": "uint256",
          "name": "startDate",
          "type": "uint256"
        },
        {
          "internalType": "uint256",
          "name": "endDate",
          "type": "uint256"
        },
        {
          "internalType": "string",
          "name": "stateRegistered",
          "type": "string"
        },
        {
          "internalType": "enum VehicleLedger.OwnerType",
          "name": "usageType",
          "type": "uint8"
        },
        {
          "internalType": "address",
          "name": "reporter",
          "type": "address"
        }
      ],
      "stateMutability": "view",
      "type": "function"
    },
    {
      "inputs": [
        {
          "internalType": "string",
          "name": "",
          "type": "string"
        },
        {
          "internalType": "uint256",
          "name": "",
          "type": "uint256"
        }
      ],
      "name": "recallHistory",
      "outputs": [
        {
          "internalType": "uint256",
          "name": "recallDate",
          "type": "uint256"
        },
        {
          "internalType": "string",
          "name": "recallId",
          "type": "string"
        },
        {
          "internalType": "string",
          "name": "description",
          "type": "string"
        },
        {
          "internalType": "bool",
          "name": "isResolved",
          "type": "bool"
        },
        {
          "internalType": "address",
          "name": "reporter",
          "type": "address"
        }
      ],
      "stateMutability": "view",
      "type": "function"
    },
    {
      "inputs": [
        {
          "internalType": "string",
          "name": "_vin",
          "type": "string"
        },
        {
          "internalType": "string",
          "name": "_brand",
          "type": "string"
        },
        {
          "internalType": "string",
          "name": "_model",
          "type": "string"
        },
        {
          "internalType": "uint16",
          "name": "_year",
          "type": "uint16"
        },
        {
          "internalType": "enum VehicleLedger.VehicleStyle",
          "name": "_style",
          "type": "uint8"
        },
        {
          "internalType": "string",
          "name": "_trimLevel",
          "type": "string"
        }
      ],
      "name": "registerVehicle",
      "outputs": [],
      "stateMutability": "nonpayable",
      "type": "function"
    },
    {
      "inputs": [
        {
          "internalType": "bytes32",
          "name": "role",
          "type": "bytes32"
        },
        {
          "internalType": "address",
          "name": "callerConfirmation",
          "type": "address"
        }
      ],
      "name": "renounceRole",
      "outputs": [],
      "stateMutability": "nonpayable",
      "type": "function"
    },
    {
      "inputs": [
        {
          "internalType": "bytes32",
          "name": "role",
          "type": "bytes32"
        },
        {
          "internalType": "address",
          "name": "account",
          "type": "address"
        }
      ],
      "name": "revokeRole",
      "outputs": [],
      "stateMutability": "nonpayable",
      "type": "function"
    },
    {
      "inputs": [
        {
          "internalType": "string",
          "name": "",
          "type": "string"
        },
        {
          "internalType": "uint256",
          "name": "",
          "type": "uint256"
        }
      ],
      "name": "serviceHistory",
      "outputs": [
        {
          "internalType": "uint256",
          "name": "serviceDate",
          "type": "uint256"
        },
        {
          "internalType": "uint32",
          "name": "mileage",
          "type": "uint32"
        },
        {
          "internalType": "string",
          "name": "serviceNotes",
          "type": "string"
        },
        {
          "internalType": "address",
          "name": "serviceProvider",
          "type": "address"
        }
      ],
      "stateMutability": "view",
      "type": "function"
    },
    {
      "inputs": [
        {
          "internalType": "bytes4",
          "name": "interfaceId",
          "type": "bytes4"
        }
      ],
      "name": "supportsInterface",
      "outputs": [
        {
          "internalType": "bool",
          "name": "",
          "type": "bool"
        }
      ],
      "stateMutability": "view",
      "type": "function"
    },
    {
      "inputs": [
        {
          "internalType": "string",
          "name": "",
          "type": "string"
        },
        {
          "internalType": "uint256",
          "name": "",
          "type": "uint256"
        }
      ],
      "name": "titleHistory",
      "outputs": [
        {
          "internalType": "uint256",
          "name": "reportDate",
          "type": "uint256"
        },
        {
          "internalType": "enum VehicleLedger.TitleType",
          "name": "titleType",
          "type": "uint8"
        },
        {
          "internalType": "string",
          "name": "details",
          "type": "string"
        },
        {
          "internalType": "address",
          "name": "reporter",
          "type": "address"
        }
      ],
      "stateMutability": "view",
      "type": "function"
    },
    {
      "inputs": [
        {
          "internalType": "string",
          "name": "",
          "type": "string"
        }
      ],
      "name": "vehicleExists",
      "outputs": [
        {
          "internalType": "bool",
          "name": "",
          "type": "bool"
        }
      ],
      "stateMutability": "view",
      "type": "function"
    },
    {
      "inputs": [
        {
          "internalType": "string",
          "name": "",
          "type": "string"
        }
      ],
      "name": "vehicleStaticData",
      "outputs": [
        {
          "internalType": "string",
          "name": "brand",
          "type": "string"
        },
        {
          "internalType": "string",
          "name": "model",
          "type": "string"
        },
        {
          "internalType": "uint16",
          "name": "year",
          "type": "uint16"
        },
        {
          "internalType": "string",
          "name": "trimLevel",
          "type": "string"
        },
        {
          "internalType": "enum VehicleLedger.VehicleStyle",
          "name": "style",
          "type": "uint8"
        },
        {
          "internalType": "uint256",
          "name": "blockTimestamp",
          "type": "uint256"
        }
      ],
      "stateMutability": "view",
      "type": "function"
    }
  ],
  "bytecode": "0x608060405234801561001057600080fd5b506100246000801b3361002a60201b60201c565b50610199565b600061003c838361012760201b60201c565b61011c57600160008085815260200190815260200160002060000160008473ffffffffffffffffffffffffffffffffffffffff1673ffffffffffffffffffffffffffffffffffffffff16815260200190815260200160002060006101000a81548160ff0219169083151502179055506100b961019160201b60201c565b73ffffffffffffffffffffffffffffffffffffffff168273ffffffffffffffffffffffffffffffffffffffff16847f2f8788117e7eff1d82e926ec794901d17c78024a50270940304540a733656f0d60405160405180910390a460019050610121565b600090505b92915050565b600080600084815260200190815260200160002060000160008373ffffffffffffffffffffffffffffffffffffffff1673ffffffffffffffffffffffffffffffffffffffff16815260200190815260200160002060009054906101000a900460ff16905092915050565b600033905090565b613f55806101a86000396000f3fe608060405234801561001057600080fd5b50600436106101a95760003560e01c8063492e9e88116100f9578063ba8dbae511610097578063d547741f11610071578063d547741f14610543578063de7c1ae21461055f578063e86f07081461057b578063f8bac74f146105ab576101a9565b8063ba8dbae5146104bf578063bd9a2a61146104db578063cc93a87a14610510576101a9565b8063965288b0116100d3578063965288b0146104355780639913019514610453578063a217fddf14610471578063b2dd18f41461048f576101a9565b8063492e9e88146103b75780636b22d13b146103e757806391d1485414610405576101a9565b80632e7f800e1161016657806336568abe1161014057806336568abe1461033157806337eb573f1461034d5780633ce56682146103695780634302f18d14610385576101a9565b80632e7f800e146102b15780632f2ff15d146102e5578063320f5e6714610301576101a9565b806301ffc9a7146101ae578063056c9989146101de578063126d1dd4146101fc57806320efb25114610218578063248a9ca31461024c5780632a5b29cd1461027c575b600080fd5b6101c860048036038101906101c391906127f7565b6105de565b6040516101d5919061283f565b60405180910390f35b6101e6610658565b6040516101f39190612873565b60405180910390f35b61021660048036038101906102119190612952565b61067c565b005b610232600480360381019061022d9190612bd9565b610982565b604051610243959493929190612d7b565b60405180910390f35b61026660048036038101906102619190612e01565b610aa0565b6040516102739190612873565b60405180910390f35b61029660048036038101906102919190612bd9565b610abf565b6040516102a896959493929190612e76565b60405180910390f35b6102cb60048036038101906102c69190612bd9565b610bfd565b6040516102dc959493929190612ede565b60405180910390f35b6102ff60048036038101906102fa9190612f6b565b610da3565b005b61031b60048036038101906103169190612fab565b610dc5565b604051610328919061310b565b60405180910390f35b61034b60048036038101906103469190612f6b565b611032565b005b61036760048036038101906103629190613152565b6110ad565b005b610383600480360381019061037e919061324a565b6113a5565b005b61039f600480360381019061039a9190612bd9565b611657565b6040516103ae93929190613338565b60405180910390f35b6103d160048036038101906103cc9190612fab565b6116e4565b6040516103de91906133c0565b60405180910390f35b6103ef6118aa565b6040516103fc9190612873565b60405180910390f35b61041f600480360381019061041a9190612f6b565b6118ce565b60405161042c919061283f565b60405180910390f35b61043d611938565b60405161044a9190612873565b60405180910390f35b61045b61195c565b6040516104689190612873565b60405180910390f35b610479611980565b6040516104869190612873565b60405180910390f35b6104a960048036038101906104a491906133db565b611987565b6040516104b6919061283f565b60405180910390f35b6104d960048036038101906104d49190613450565b6119bd565b005b6104f560048036038101906104f091906133db565b611c16565b6040516105079695949392919061354e565b60405180910390f35b61052a60048036038101906105259190612bd9565b611e1b565b60405161053a94939291906135d3565b60405180910390f35b61055d60048036038101906105589190612f6b565b611f33565b005b6105796004803603810190610574919061361f565b611f55565b005b61059560048036038101906105909190612fab565b61228e565b6040516105a29190613693565b60405180910390f35b6105c560048036038101906105c09190612bd9565b612329565b6040516105d594939291906136ae565b60405180910390f35b60007f7965db0b000000000000000000000000000000000000000000000000000000007bffffffffffffffffffffffffffffffffffffffffffffffffffffffff1916827bffffffffffffffffffffffffffffffffffffffffffffffffffffffff19161480610651575061065082612444565b5b9050919050565b7feb0a07781e3ee843c0d85f7381c2e1a1e1a6ea86bcdcd944ef649d46e7dcd97281565b7feefb95e842a3287179d933b4460be539a1d5af11aa8b325bb45c5c8dc92de4ed6106a6816124ae565b60088b8b6040516106b892919061372a565b908152602001604051809103902060009054906101000a900460ff1615610714576040517f08c379a000000000000000000000000000000000000000000000000000000000815260040161070b906137b5565b60405180910390fd5b6040518060c001604052808a8a8080601f016020809104026020016040519081016040528093929190818152602001838380828437600081840152601f19601f82011690508083019250505050505050815260200188888080601f016020809104026020016040519081016040528093929190818152602001838380828437600081840152601f19601f8201169050808301925050505050505081526020018661ffff16815260200184848080601f016020809104026020016040519081016040528093929190818152602001838380828437600081840152601f19601f82011690508083019250505050505050815260200185600781111561081a57610819612cc3565b5b81526020014281525060018c8c60405161083592919061372a565b9081526020016040518091039020600082015181600001908161085891906139e1565b50602082015181600101908161086e91906139e1565b5060408201518160020160006101000a81548161ffff021916908361ffff16021790555060608201518160030190816108a791906139e1565b5060808201518160040160006101000a81548160ff021916908360078111156108d3576108d2612cc3565b5b021790555060a08201518160050155905050600160088c8c6040516108f992919061372a565b908152602001604051809103902060006101000a81548160ff0219169083151502179055508a8a60405161092e92919061372a565b60405180910390207fa49d9f73b29b7800a9d1e5bffd17d7a753c89f6ba5267070f35cd0d5ba71743d8a8a8a8a8a60405161096d959493929190613ae0565b60405180910390a25050505050505050505050565b60028280516020810182018051848252602083016020850120818352809550505050505081815481106109b457600080fd5b9060005260206000209060040201600091509150508060000154908060010154908060020180546109e490613804565b80601f0160208091040260200160405190810160405280929190818152602001828054610a1090613804565b8015610a5d5780601f10610a3257610100808354040283529160200191610a5d565b820191906000526020600020905b815481529060010190602001808311610a4057829003601f168201915b5050505050908060030160009054906101000a900460ff16908060030160019054906101000a900473ffffffffffffffffffffffffffffffffffffffff16905085565b6000806000838152602001908152602001600020600101549050919050565b6003828051602081018201805184825260208301602085012081835280955050505050508181548110610af157600080fd5b906000526020600020906003020160009150915050806000015490806001018054610b1b90613804565b80601f0160208091040260200160405190810160405280929190818152602001828054610b4790613804565b8015610b945780601f10610b6957610100808354040283529160200191610b94565b820191906000526020600020905b815481529060010190602001808311610b7757829003601f168201915b5050505050908060020160009054906101000a900460ff16908060020160019054906101000a900460ff16908060020160029054906101000a900460ff16908060020160039054906101000a900473ffffffffffffffffffffffffffffffffffffffff16905086565b6007828051602081018201805184825260208301602085012081835280955050505050508181548110610c2f57600080fd5b906000526020600020906004020160009150915050806000015490806001018054610c5990613804565b80601f0160208091040260200160405190810160405280929190818152602001828054610c8590613804565b8015610cd25780601f10610ca757610100808354040283529160200191610cd2565b820191906000526020600020905b815481529060010190602001808311610cb557829003601f168201915b505050505090806002018054610ce790613804565b80601f0160208091040260200160405190810160405280929190818152602001828054610d1390613804565b8015610d605780601f10610d3557610100808354040283529160200191610d60565b820191906000526020600020905b815481529060010190602001808311610d4357829003601f168201915b5050505050908060030160009054906101000a900460ff16908060030160019054906101000a900473ffffffffffffffffffffffffffffffffffffffff16905085565b610dac82610aa0565b610db5816124ae565b610dbf83836124c2565b50505050565b610dcd6126fe565b60088383604051610ddf92919061372a565b908152602001604051809103902060009054906101000a900460ff16610e3a576040517f08c379a0000000000000000000000000000000000000000000000000000000008152600401610e3190613b75565b60405180910390fd5b600060048484604051610e4e92919061372a565b908152602001604051809103902080549050905060008111610ea5576040517f08c379a0000000000000000000000000000000000000000000000000000000008152600401610e9c90613be1565b60405180910390fd5b60048484604051610eb792919061372a565b9081526020016040518091039020600182610ed29190613c30565b81548110610ee357610ee2613c64565b5b9060005260206000209060040201604051806080016040529081600082015481526020016001820160009054906101000a900460ff166006811115610f2b57610f2a612cc3565b5b6006811115610f3d57610f3c612cc3565b5b8152602001600282018054610f5190613804565b80601f0160208091040260200160405190810160405280929190818152602001828054610f7d90613804565b8015610fca5780601f10610f9f57610100808354040283529160200191610fca565b820191906000526020600020905b815481529060010190602001808311610fad57829003601f168201915b505050505081526020016003820160009054906101000a900473ffffffffffffffffffffffffffffffffffffffff1673ffffffffffffffffffffffffffffffffffffffff1673ffffffffffffffffffffffffffffffffffffffff168152505091505092915050565b61103a6125b3565b73ffffffffffffffffffffffffffffffffffffffff168173ffffffffffffffffffffffffffffffffffffffff161461109e576040517f6697b23200000000000000000000000000000000000000000000000000000000815260040160405180910390fd5b6110a882826125bb565b505050565b7fccfe9874354d5971d4613c62074763fd0d041ce07268500c191be0610dbbd8606110d7816124ae565b600887876040516110e992919061372a565b908152602001604051809103902060009054906101000a900460ff16611144576040517f08c379a000000000000000000000000000000000000000000000000000000000815260040161113b90613b75565b60405180910390fd5b60006002888860405161115892919061372a565b908152602001604051809103902080549050905060008111156111ca57856002898960405161118892919061372a565b90815260200160405180910390206001836111a39190613c30565b815481106111b4576111b3613c64565b5b9060005260206000209060040201600101819055505b600288886040516111dc92919061372a565b90815260200160405180910390206040518060a001604052808881526020016000815260200187878080601f016020809104026020016040519081016040528093929190818152602001838380828437600081840152601f19601f82011690508083019250505050505050815260200185600481111561125f5761125e612cc3565b5b81526020013373ffffffffffffffffffffffffffffffffffffffff168152509080600181540180825580915050600190039060005260206000209060040201600090919091909150600082015181600001556020820151816001015560408201518160020190816112d091906139e1565b5060608201518160030160006101000a81548160ff021916908360048111156112fc576112fb612cc3565b5b021790555060808201518160030160016101000a81548173ffffffffffffffffffffffffffffffffffffffff021916908373ffffffffffffffffffffffffffffffffffffffff1602179055505050878760405161135a92919061372a565b60405180910390207fca78a1f07c112ac92623be0d4dee399672d5f92f195ed735fb3afa7ffab518678785604051611393929190613c93565b60405180910390a25050505050505050565b7feb0a07781e3ee843c0d85f7381c2e1a1e1a6ea86bcdcd944ef649d46e7dcd9726113cf816124ae565b600889896040516113e192919061372a565b908152602001604051809103902060009054906101000a900460ff1661143c576040517f08c379a000000000000000000000000000000000000000000000000000000000815260040161143390613b75565b60405180910390fd5b6003898960405161144e92919061372a565b90815260200160405180910390206040518060c0016040528089815260200188888080601f016020809104026020016040519081016040528093929190818152602001838380828437600081840152601f19601f8201169050808301925050505050505081526020018660048111156114ca576114c9612cc3565b5b8152602001851515815260200184151581526020013373ffffffffffffffffffffffffffffffffffffffff16815250908060018154018082558091505060019003906000526020600020906003020160009091909190915060008201518160000155602082015181600101908161154191906139e1565b5060408201518160020160006101000a81548160ff0219169083600481111561156d5761156c612cc3565b5b021790555060608201518160020160016101000a81548160ff02191690831515021790555060808201518160020160026101000a81548160ff02191690831515021790555060a08201518160020160036101000a81548173ffffffffffffffffffffffffffffffffffffffff021916908373ffffffffffffffffffffffffffffffffffffffff1602179055505050888860405161160b92919061372a565b60405180910390207fbbff008f21df29c2dc5c6990d064e9b4c1ca0bb3800be00d15e279e213a1e3278886604051611644929190613cbc565b60405180910390a2505050505050505050565b600582805160208101820180518482526020830160208501208183528095505050505050818154811061168957600080fd5b9060005260206000209060020201600091509150508060000154908060010160009054906101000a900463ffffffff16908060010160049054906101000a900473ffffffffffffffffffffffffffffffffffffffff16905083565b6116ec61274e565b600883836040516116fe92919061372a565b908152602001604051809103902060009054906101000a900460ff16611759576040517f08c379a000000000000000000000000000000000000000000000000000000000815260040161175090613b75565b60405180910390fd5b60006005848460405161176d92919061372a565b9081526020016040518091039020805490509050600081116117c4576040517f08c379a00000000000000000000000000000000000000000000000000000000081526004016117bb90613d57565b60405180910390fd5b600584846040516117d692919061372a565b90815260200160405180910390206001826117f19190613c30565b8154811061180257611801613c64565b5b9060005260206000209060020201604051806060016040529081600082015481526020016001820160009054906101000a900463ffffffff1663ffffffff1663ffffffff1681526020016001820160049054906101000a900473ffffffffffffffffffffffffffffffffffffffff1673ffffffffffffffffffffffffffffffffffffffff1673ffffffffffffffffffffffffffffffffffffffff168152505091505092915050565b7f1ac05cded273d7237dfbbd305bbd7cd47a33eb42bf9f7d2307b7784016772fc081565b600080600084815260200190815260200160002060000160008373ffffffffffffffffffffffffffffffffffffffff1673ffffffffffffffffffffffffffffffffffffffff16815260200190815260200160002060009054906101000a900460ff16905092915050565b7feefb95e842a3287179d933b4460be539a1d5af11aa8b325bb45c5c8dc92de4ed81565b7fccfe9874354d5971d4613c62074763fd0d041ce07268500c191be0610dbbd86081565b6000801b81565b6008818051602081018201805184825260208301602085012081835280955050505050506000915054906101000a900460ff1681565b7f1ac05cded273d7237dfbbd305bbd7cd47a33eb42bf9f7d2307b7784016772fc06119e7816124ae565b600887876040516119f992919061372a565b908152602001604051809103902060009054906101000a900460ff16611a54576040517f08c379a0000000000000000000000000000000000000000000000000000000008152600401611a4b90613b75565b60405180910390fd5b60068787604051611a6692919061372a565b908152602001604051809103902060405180608001604052808781526020018663ffffffff16815260200185858080601f016020809104026020016040519081016040528093929190818152602001838380828437600081840152601f19601f8201169050808301925050505050505081526020013373ffffffffffffffffffffffffffffffffffffffff1681525090806001815401808255809150506001900390600052602060002090600402016000909190919091506000820151816000015560208201518160010160006101000a81548163ffffffff021916908363ffffffff1602179055506040820151816002019081611b6491906139e1565b5060608201518160030160006101000a81548173ffffffffffffffffffffffffffffffffffffffff021916908373ffffffffffffffffffffffffffffffffffffffff1602179055505050611bba87878787611f55565b8686604051611bca92919061372a565b60405180910390207f750a48e2bf0b943cb07a36dbaa4dc903977632097045f63873e31413609335e4868585604051611c0593929190613d77565b60405180910390a250505050505050565b600181805160208101820180518482526020830160208501208183528095505050505050600091509050806000018054611c4f90613804565b80601f0160208091040260200160405190810160405280929190818152602001828054611c7b90613804565b8015611cc85780601f10611c9d57610100808354040283529160200191611cc8565b820191906000526020600020905b815481529060010190602001808311611cab57829003601f168201915b505050505090806001018054611cdd90613804565b80601f0160208091040260200160405190810160405280929190818152602001828054611d0990613804565b8015611d565780601f10611d2b57610100808354040283529160200191611d56565b820191906000526020600020905b815481529060010190602001808311611d3957829003601f168201915b5050505050908060020160009054906101000a900461ffff1690806003018054611d7f90613804565b80601f0160208091040260200160405190810160405280929190818152602001828054611dab90613804565b8015611df85780601f10611dcd57610100808354040283529160200191611df8565b820191906000526020600020905b815481529060010190602001808311611ddb57829003601f168201915b5050505050908060040160009054906101000a900460ff16908060050154905086565b6004828051602081018201805184825260208301602085012081835280955050505050508181548110611e4d57600080fd5b9060005260206000209060040201600091509150508060000154908060010160009054906101000a900460ff1690806002018054611e8a90613804565b80601f0160208091040260200160405190810160405280929190818152602001828054611eb690613804565b8015611f035780601f10611ed857610100808354040283529160200191611f03565b820191906000526020600020905b815481529060010190602001808311611ee657829003601f168201915b5050505050908060030160009054906101000a900473ffffffffffffffffffffffffffffffffffffffff16905084565b611f3c82610aa0565b611f45816124ae565b611f4f83836125bb565b50505050565b611f7f7f1ac05cded273d7237dfbbd305bbd7cd47a33eb42bf9f7d2307b7784016772fc0336118ce565b80611fb05750611faf7fccfe9874354d5971d4613c62074763fd0d041ce07268500c191be0610dbbd860336118ce565b5b611fef576040517f08c379a0000000000000000000000000000000000000000000000000000000008152600401611fe690613e1b565b60405180910390fd5b6008848460405161200192919061372a565b908152602001604051809103902060009054906101000a900460ff1661205c576040517f08c379a000000000000000000000000000000000000000000000000000000000815260040161205390613b75565b60405180910390fd5b60006005858560405161207092919061372a565b9081526020016040518091039020805490509050600081111561213c576005858560405161209f92919061372a565b90815260200160405180910390206001826120ba9190613c30565b815481106120cb576120ca613c64565b5b906000526020600020906002020160010160009054906101000a900463ffffffff1663ffffffff168263ffffffff16101561213b576040517f08c379a000000000000000000000000000000000000000000000000000000000815260040161213290613ead565b60405180910390fd5b5b6005858560405161214e92919061372a565b908152602001604051809103902060405180606001604052808581526020018463ffffffff1681526020013373ffffffffffffffffffffffffffffffffffffffff1681525090806001815401808255809150506001900390600052602060002090600202016000909190919091506000820151816000015560208201518160010160006101000a81548163ffffffff021916908363ffffffff16021790555060408201518160010160046101000a81548173ffffffffffffffffffffffffffffffffffffffff021916908373ffffffffffffffffffffffffffffffffffffffff1602179055505050848460405161224692919061372a565b60405180910390207f5df6b62684d712eec8d9204912596fabcd36cfc9477365495f395d59f13cc578848460405161227f929190613ecd565b60405180910390a25050505050565b6000600883836040516122a292919061372a565b908152602001604051809103902060009054906101000a900460ff166122fd576040517f08c379a00000000000000000000000000000000000000000000000000000000081526004016122f490613b75565b60405180910390fd5b6002838360405161230f92919061372a565b908152602001604051809103902080549050905092915050565b600682805160208101820180518482526020830160208501208183528095505050505050818154811061235b57600080fd5b9060005260206000209060040201600091509150508060000154908060010160009054906101000a900463ffffffff169080600201805461239b90613804565b80601f01602080910402602001604051908101604052809291908181526020018280546123c790613804565b80156124145780601f106123e957610100808354040283529160200191612414565b820191906000526020600020905b8154815290600101906020018083116123f757829003601f168201915b5050505050908060030160009054906101000a900473ffffffffffffffffffffffffffffffffffffffff16905084565b60007f01ffc9a7000000000000000000000000000000000000000000000000000000007bffffffffffffffffffffffffffffffffffffffffffffffffffffffff1916827bffffffffffffffffffffffffffffffffffffffffffffffffffffffff1916149050919050565b6124bf816124ba6125b3565b6126ad565b50565b60006124ce83836118ce565b6125a857600160008085815260200190815260200160002060000160008473ffffffffffffffffffffffffffffffffffffffff1673ffffffffffffffffffffffffffffffffffffffff16815260200190815260200160002060006101000a81548160ff0219169083151502179055506125456125b3565b73ffffffffffffffffffffffffffffffffffffffff168273ffffffffffffffffffffffffffffffffffffffff16847f2f8788117e7eff1d82e926ec794901d17c78024a50270940304540a733656f0d60405160405180910390a4600190506125ad565b600090505b92915050565b600033905090565b60006125c783836118ce565b156126a257600080600085815260200190815260200160002060000160008473ffffffffffffffffffffffffffffffffffffffff1673ffffffffffffffffffffffffffffffffffffffff16815260200190815260200160002060006101000a81548160ff02191690831515021790555061263f6125b3565b73ffffffffffffffffffffffffffffffffffffffff168273ffffffffffffffffffffffffffffffffffffffff16847ff6391f5c32d9c69d2a47ea670b442974b53935d1edc7fd64eb21e047a839171b60405160405180910390a4600190506126a7565b600090505b92915050565b6126b782826118ce565b6126fa5780826040517fe2517d3f0000000000000000000000000000000000000000000000000000000081526004016126f1929190613ef6565b60405180910390fd5b5050565b6040518060800160405280600081526020016000600681111561272457612723612cc3565b5b815260200160608152602001600073ffffffffffffffffffffffffffffffffffffffff1681525090565b604051806060016040528060008152602001600063ffffffff168152602001600073ffffffffffffffffffffffffffffffffffffffff1681525090565b6000604051905090565b600080fd5b600080fd5b60007fffffffff0000000000000000000000000000000000000000000000000000000082169050919050565b6127d48161279f565b81146127df57600080fd5b50565b6000813590506127f1816127cb565b92915050565b60006020828403121561280d5761280c612795565b5b600061281b848285016127e2565b91505092915050565b60008115159050919050565b61283981612824565b82525050565b60006020820190506128546000830184612830565b92915050565b6000819050919050565b61286d8161285a565b82525050565b60006020820190506128886000830184612864565b92915050565b600080fd5b600080fd5b600080fd5b60008083601f8401126128b3576128b261288e565b5b8235905067ffffffffffffffff8111156128d0576128cf612893565b5b6020830191508360018202830111156128ec576128eb612898565b5b9250929050565b600061ffff82169050919050565b61290a816128f3565b811461291557600080fd5b50565b60008135905061292781612901565b92915050565b6008811061293a57600080fd5b50565b60008135905061294c8161292d565b92915050565b60008060008060008060008060008060c08b8d03121561297557612974612795565b5b60008b013567ffffffffffffffff8111156129935761299261279a565b5b61299f8d828e0161289d565b9a509a505060208b013567ffffffffffffffff8111156129c2576129c161279a565b5b6129ce8d828e0161289d565b985098505060408b013567ffffffffffffffff8111156129f1576129f061279a565b5b6129fd8d828e0161289d565b96509650506060612a108d828e01612918565b9450506080612a218d828e0161293d565b93505060a08b013567ffffffffffffffff811115612a4257612a4161279a565b5b612a4e8d828e0161289d565b92509250509295989b9194979a5092959850565b600080fd5b6000601f19601f8301169050919050565b7f4e487b7100000000000000000000000000000000000000000000000000000000600052604160045260246000fd5b612ab082612a67565b810181811067ffffffffffffffff82111715612acf57612ace612a78565b5b80604052505050565b6000612ae261278b565b9050612aee8282612aa7565b919050565b600067ffffffffffffffff821115612b0e57612b0d612a78565b5b612b1782612a67565b9050602081019050919050565b82818337600083830152505050565b6000612b46612b4184612af3565b612ad8565b905082815260208101848484011115612b6257612b61612a62565b5b612b6d848285612b24565b509392505050565b600082601f830112612b8a57612b8961288e565b5b8135612b9a848260208601612b33565b91505092915050565b6000819050919050565b612bb681612ba3565b8114612bc157600080fd5b50565b600081359050612bd381612bad565b92915050565b60008060408385031215612bf057612bef612795565b5b600083013567ffffffffffffffff811115612c0e57612c0d61279a565b5b612c1a85828601612b75565b9250506020612c2b85828601612bc4565b9150509250929050565b612c3e81612ba3565b82525050565b600081519050919050565b600082825260208201905092915050565b60005b83811015612c7e578082015181840152602081019050612c63565b60008484015250505050565b6000612c9582612c44565b612c9f8185612c4f565b9350612caf818560208601612c60565b612cb881612a67565b840191505092915050565b7f4e487b7100000000000000000000000000000000000000000000000000000000600052602160045260246000fd5b60058110612d0357612d02612cc3565b5b50565b6000819050612d1482612cf2565b919050565b6000612d2482612d06565b9050919050565b612d3481612d19565b82525050565b600073ffffffffffffffffffffffffffffffffffffffff82169050919050565b6000612d6582612d3a565b9050919050565b612d7581612d5a565b82525050565b600060a082019050612d906000830188612c35565b612d9d6020830187612c35565b8181036040830152612daf8186612c8a565b9050612dbe6060830185612d2b565b612dcb6080830184612d6c565b9695505050505050565b612dde8161285a565b8114612de957600080fd5b50565b600081359050612dfb81612dd5565b92915050565b600060208284031215612e1757612e16612795565b5b6000612e2584828501612dec565b91505092915050565b60058110612e3f57612e3e612cc3565b5b50565b6000819050612e5082612e2e565b919050565b6000612e6082612e42565b9050919050565b612e7081612e55565b82525050565b600060c082019050612e8b6000830189612c35565b8181036020830152612e9d8188612c8a565b9050612eac6040830187612e67565b612eb96060830186612830565b612ec66080830185612830565b612ed360a0830184612d6c565b979650505050505050565b600060a082019050612ef36000830188612c35565b8181036020830152612f058187612c8a565b90508181036040830152612f198186612c8a565b9050612f286060830185612830565b612f356080830184612d6c565b9695505050505050565b612f4881612d5a565b8114612f5357600080fd5b50565b600081359050612f6581612f3f565b92915050565b60008060408385031215612f8257612f81612795565b5b6000612f9085828601612dec565b9250506020612fa185828601612f56565b9150509250929050565b60008060208385031215612fc257612fc1612795565b5b600083013567ffffffffffffffff811115612fe057612fdf61279a565b5b612fec8582860161289d565b92509250509250929050565b61300181612ba3565b82525050565b6007811061301857613017612cc3565b5b50565b600081905061302982613007565b919050565b60006130398261301b565b9050919050565b6130498161302e565b82525050565b600082825260208201905092915050565b600061306b82612c44565b613075818561304f565b9350613085818560208601612c60565b61308e81612a67565b840191505092915050565b6130a281612d5a565b82525050565b60006080830160008301516130c06000860182612ff8565b5060208301516130d36020860182613040565b50604083015184820360408601526130eb8282613060565b91505060608301516131006060860182613099565b508091505092915050565b6000602082019050818103600083015261312581846130a8565b905092915050565b6005811061313a57600080fd5b50565b60008135905061314c8161312d565b92915050565b6000806000806000806080878903121561316f5761316e612795565b5b600087013567ffffffffffffffff81111561318d5761318c61279a565b5b61319989828a0161289d565b965096505060206131ac89828a01612bc4565b945050604087013567ffffffffffffffff8111156131cd576131cc61279a565b5b6131d989828a0161289d565b935093505060606131ec89828a0161313d565b9150509295509295509295565b6005811061320657600080fd5b50565b600081359050613218816131f9565b92915050565b61322781612824565b811461323257600080fd5b50565b6000813590506132448161321e565b92915050565b60008060008060008060008060c0898b03121561326a57613269612795565b5b600089013567ffffffffffffffff8111156132885761328761279a565b5b6132948b828c0161289d565b985098505060206132a78b828c01612bc4565b965050604089013567ffffffffffffffff8111156132c8576132c761279a565b5b6132d48b828c0161289d565b955095505060606132e78b828c01613209565b93505060806132f88b828c01613235565b92505060a06133098b828c01613235565b9150509295985092959890939650565b600063ffffffff82169050919050565b61333281613319565b82525050565b600060608201905061334d6000830186612c35565b61335a6020830185613329565b6133676040830184612d6c565b949350505050565b61337881613319565b82525050565b6060820160008201516133946000850182612ff8565b5060208201516133a7602085018261336f565b5060408201516133ba6040850182613099565b50505050565b60006060820190506133d5600083018461337e565b92915050565b6000602082840312156133f1576133f0612795565b5b600082013567ffffffffffffffff81111561340f5761340e61279a565b5b61341b84828501612b75565b91505092915050565b61342d81613319565b811461343857600080fd5b50565b60008135905061344a81613424565b92915050565b6000806000806000806080878903121561346d5761346c612795565b5b600087013567ffffffffffffffff81111561348b5761348a61279a565b5b61349789828a0161289d565b965096505060206134aa89828a01612bc4565b94505060406134bb89828a0161343b565b935050606087013567ffffffffffffffff8111156134dc576134db61279a565b5b6134e889828a0161289d565b92509250509295509295509295565b613500816128f3565b82525050565b6008811061351757613516612cc3565b5b50565b600081905061352882613506565b919050565b60006135388261351a565b9050919050565b6135488161352d565b82525050565b600060c08201905081810360008301526135688189612c8a565b9050818103602083015261357c8188612c8a565b905061358b60408301876134f7565b818103606083015261359d8186612c8a565b90506135ac608083018561353f565b6135b960a0830184612c35565b979650505050505050565b6135cd8161302e565b82525050565b60006080820190506135e86000830187612c35565b6135f560208301866135c4565b81810360408301526136078185612c8a565b90506136166060830184612d6c565b95945050505050565b6000806000806060858703121561363957613638612795565b5b600085013567ffffffffffffffff8111156136575761365661279a565b5b6136638782880161289d565b9450945050602061367687828801612bc4565b92505060406136878782880161343b565b91505092959194509250565b60006020820190506136a86000830184612c35565b92915050565b60006080820190506136c36000830187612c35565b6136d06020830186613329565b81810360408301526136e28185612c8a565b90506136f16060830184612d6c565b95945050505050565b600081905092915050565b600061371183856136fa565b935061371e838584612b24565b82840190509392505050565b6000613737828486613705565b91508190509392505050565b7f56656869636c654c65646765723a2056494e20616c726561647920726567697360008201527f7465726564000000000000000000000000000000000000000000000000000000602082015250565b600061379f602583612c4f565b91506137aa82613743565b604082019050919050565b600060208201905081810360008301526137ce81613792565b9050919050565b7f4e487b7100000000000000000000000000000000000000000000000000000000600052602260045260246000fd5b6000600282049050600182168061381c57607f821691505b60208210810361382f5761382e6137d5565b5b50919050565b60008190508160005260206000209050919050565b60006020601f8301049050919050565b600082821b905092915050565b6000600883026138977fffffffffffffffffffffffffffffffffffffffffffffffffffffffffffffffff8261385a565b6138a1868361385a565b95508019841693508086168417925050509392505050565b6000819050919050565b60006138de6138d96138d484612ba3565b6138b9565b612ba3565b9050919050565b6000819050919050565b6138f8836138c3565b61390c613904826138e5565b848454613867565b825550505050565b600090565b613921613914565b61392c8184846138ef565b505050565b5b8181101561395057613945600082613919565b600181019050613932565b5050565b601f8211156139955761396681613835565b61396f8461384a565b8101602085101561397e578190505b61399261398a8561384a565b830182613931565b50505b505050565b600082821c905092915050565b60006139b86000198460080261399a565b1980831691505092915050565b60006139d183836139a7565b9150826002028217905092915050565b6139ea82612c44565b67ffffffffffffffff811115613a0357613a02612a78565b5b613a0d8254613804565b613a18828285613954565b600060209050601f831160018114613a4b5760008415613a39578287015190505b613a4385826139c5565b865550613aab565b601f198416613a5986613835565b60005b82811015613a8157848901518255600182019150602085019450602081019050613a5c565b86831015613a9e5784890151613a9a601f8916826139a7565b8355505b6001600288020188555050505b505050505050565b6000613abf8385612c4f565b9350613acc838584612b24565b613ad583612a67565b840190509392505050565b60006060820190508181036000830152613afb818789613ab3565b90508181036020830152613b10818587613ab3565b9050613b1f60408301846134f7565b9695505050505050565b7f56656869636c654c65646765723a2056494e206e6f7420666f756e6400000000600082015250565b6000613b5f601c83612c4f565b9150613b6a82613b29565b602082019050919050565b60006020820190508181036000830152613b8e81613b52565b9050919050565b7f56656869636c654c65646765723a204e6f207469746c6520686973746f727900600082015250565b6000613bcb601f83612c4f565b9150613bd682613b95565b602082019050919050565b60006020820190508181036000830152613bfa81613bbe565b9050919050565b7f4e487b7100000000000000000000000000000000000000000000000000000000600052601160045260246000fd5b6000613c3b82612ba3565b9150613c4683612ba3565b9250828203905081811115613c5e57613c5d613c01565b5b92915050565b7f4e487b7100000000000000000000000000000000000000000000000000000000600052603260045260246000fd5b6000604082019050613ca86000830185612c35565b613cb56020830184612d2b565b9392505050565b6000604082019050613cd16000830185612c35565b613cde6020830184612e67565b9392505050565b7f56656869636c654c65646765723a204e6f206d696c6561676520686973746f7260008201527f7900000000000000000000000000000000000000000000000000000000000000602082015250565b6000613d41602183612c4f565b9150613d4c82613ce5565b604082019050919050565b60006020820190508181036000830152613d7081613d34565b9050919050565b6000604082019050613d8c6000830186612c35565b8181036020830152613d9f818486613ab3565b9050949350505050565b7f56656869636c654c65646765723a204e6f7420617574686f72697a656420746f60008201527f207265706f7274206d696c656167650000000000000000000000000000000000602082015250565b6000613e05602f83612c4f565b9150613e1082613da9565b604082019050919050565b60006020820190508181036000830152613e3481613df8565b9050919050565b7f56656869636c654c65646765723a204d696c6561676520726f6c6c6261636b2060008201527f6465746563746564000000000000000000000000000000000000000000000000602082015250565b6000613e97602883612c4f565b9150613ea282613e3b565b604082019050919050565b60006020820190508181036000830152613ec681613e8a565b9050919050565b6000604082019050613ee26000830185612c35565b613eef6020830184613329565b9392505050565b6000604082019050613f0b6000830185612d6c565b613f186020830184612864565b939250505056fea2646970667358221220b2e79e135a5cdcfec2997e17ffbc135060e5c0ea779c630e115448561f0fd60464736f6c634300081c0033",
  "linkReferences": {},
  "deployedLinkReferences": {}
}